{
    "_format": "hh-sol-artifact-1",
    "contractName": "ABXToken",
    "sourceName": "contracts/ABXToken.sol",
    "abi": [
        {
            "inputs": [],
            "stateMutability": "nonpayable",
            "type": "constructor"
        },
        {
            "inputs": [
                {
                    "internalType": "address",
                    "name": "spender",
                    "type": "address"
                },
                {
                    "internalType": "uint256",
                    "name": "allowance",
                    "type": "uint256"
                },
                {
                    "internalType": "uint256",
                    "name": "needed",
                    "type": "uint256"
                }
            ],
            "name": "ERC20InsufficientAllowance",
            "type": "error"
        },
        {
            "inputs": [
                {
                    "internalType": "address",
                    "name": "sender",
                    "type": "address"
                },
                {
                    "internalType": "uint256",
                    "name": "balance",
                    "type": "uint256"
                },
                {
                    "internalType": "uint256",
                    "name": "needed",
                    "type": "uint256"
                }
            ],
            "name": "ERC20InsufficientBalance",
            "type": "error"
        },
        {
            "inputs": [
                {
                    "internalType": "address",
                    "name": "approver",
                    "type": "address"
                }
            ],
            "name": "ERC20InvalidApprover",
            "type": "error"
        },
        {
            "inputs": [
                {
                    "internalType": "address",
                    "name": "receiver",
                    "type": "address"
                }
            ],
            "name": "ERC20InvalidReceiver",
            "type": "error"
        },
        {
            "inputs": [
                {
                    "internalType": "address",
                    "name": "sender",
                    "type": "address"
                }
            ],
            "name": "ERC20InvalidSender",
            "type": "error"
        },
        {
            "inputs": [
                {
                    "internalType": "address",
                    "name": "spender",
                    "type": "address"
                }
            ],
            "name": "ERC20InvalidSpender",
            "type": "error"
        },
        {
            "anonymous": false,
            "inputs": [
                {
                    "indexed": true,
                    "internalType": "address",
                    "name": "owner",
                    "type": "address"
                },
                {
                    "indexed": true,
                    "internalType": "address",
                    "name": "spender",
                    "type": "address"
                },
                {
                    "indexed": false,
                    "internalType": "uint256",
                    "name": "value",
                    "type": "uint256"
                }
            ],
            "name": "Approval",
            "type": "event"
        },
        {
            "anonymous": false,
            "inputs": [
                {
                    "indexed": true,
                    "internalType": "address",
                    "name": "from",
                    "type": "address"
                },
                {
                    "indexed": true,
                    "internalType": "address",
                    "name": "to",
                    "type": "address"
                },
                {
                    "indexed": false,
                    "internalType": "uint256",
                    "name": "value",
                    "type": "uint256"
                }
            ],
            "name": "Transfer",
            "type": "event"
        },
        {
            "inputs": [
                {
                    "internalType": "address",
                    "name": "owner",
                    "type": "address"
                },
                {
                    "internalType": "address",
                    "name": "spender",
                    "type": "address"
                }
            ],
            "name": "allowance",
            "outputs": [
                {
                    "internalType": "uint256",
                    "name": "",
                    "type": "uint256"
                }
            ],
            "stateMutability": "view",
            "type": "function"
        },
        {
            "inputs": [
                {
                    "internalType": "address",
                    "name": "spender",
                    "type": "address"
                },
                {
                    "internalType": "uint256",
                    "name": "value",
                    "type": "uint256"
                }
            ],
            "name": "approve",
            "outputs": [
                {
                    "internalType": "bool",
                    "name": "",
                    "type": "bool"
                }
            ],
            "stateMutability": "nonpayable",
            "type": "function"
        },
        {
            "inputs": [],
            "name": "balance",
            "outputs": [
                {
                    "internalType": "uint256",
                    "name": "",
                    "type": "uint256"
                }
            ],
            "stateMutability": "view",
            "type": "function"
        },
        {
            "inputs": [
                {
                    "internalType": "address",
                    "name": "account",
                    "type": "address"
                }
            ],
            "name": "balanceOf",
            "outputs": [
                {
                    "internalType": "uint256",
                    "name": "",
                    "type": "uint256"
                }
            ],
            "stateMutability": "view",
            "type": "function"
        },
        {
            "inputs": [],
            "name": "buyTokens",
            "outputs": [],
            "stateMutability": "payable",
            "type": "function"
        },
        {
            "inputs": [],
            "name": "conversionRate",
            "outputs": [
                {
                    "internalType": "uint256",
                    "name": "",
                    "type": "uint256"
                }
            ],
            "stateMutability": "view",
            "type": "function"
        },
        {
            "inputs": [],
            "name": "decimals",
            "outputs": [
                {
                    "internalType": "uint8",
                    "name": "",
                    "type": "uint8"
                }
            ],
            "stateMutability": "view",
            "type": "function"
        },
        {
            "inputs": [
                {
                    "internalType": "address",
                    "name": "account",
                    "type": "address"
                }
            ],
            "name": "getBalance",
            "outputs": [
                {
                    "internalType": "uint256",
                    "name": "",
                    "type": "uint256"
                }
            ],
            "stateMutability": "view",
            "type": "function"
        },
        {
            "inputs": [],
            "name": "name",
            "outputs": [
                {
                    "internalType": "string",
                    "name": "",
                    "type": "string"
                }
            ],
            "stateMutability": "view",
            "type": "function"
        },
        {
            "inputs": [],
            "name": "symbol",
            "outputs": [
                {
                    "internalType": "string",
                    "name": "",
                    "type": "string"
                }
            ],
            "stateMutability": "view",
            "type": "function"
        },
        {
            "inputs": [],
            "name": "totalSupply",
            "outputs": [
                {
                    "internalType": "uint256",
                    "name": "",
                    "type": "uint256"
                }
            ],
            "stateMutability": "view",
            "type": "function"
        },
        {
            "inputs": [
                {
                    "internalType": "address",
                    "name": "to",
                    "type": "address"
                },
                {
                    "internalType": "uint256",
                    "name": "value",
                    "type": "uint256"
                }
            ],
            "name": "transfer",
            "outputs": [
                {
                    "internalType": "bool",
                    "name": "",
                    "type": "bool"
                }
            ],
            "stateMutability": "nonpayable",
            "type": "function"
        },
        {
            "inputs": [
                {
                    "internalType": "address",
                    "name": "from",
                    "type": "address"
                },
                {
                    "internalType": "address",
                    "name": "to",
                    "type": "address"
                },
                {
                    "internalType": "uint256",
                    "name": "value",
                    "type": "uint256"
                }
            ],
            "name": "transferFrom",
            "outputs": [
                {
                    "internalType": "bool",
                    "name": "",
                    "type": "bool"
                }
            ],
            "stateMutability": "nonpayable",
            "type": "function"
        }
    ],
    "bytecode": "0x60806040526127106005553480156200001757600080fd5b506040518060400160405280600881526020017f414258546f6b656e0000000000000000000000000000000000000000000000008152506040518060400160405280600381526020017f414258000000000000000000000000000000000000000000000000000000000081525081600390816200009591906200060d565b508060049081620000a791906200060d565b505050620000c63369d3c21bcecceda1000000620000d660201b60201c565b620f42406006819055506200082b565b600073ffffffffffffffffffffffffffffffffffffffff168273ffffffffffffffffffffffffffffffffffffffff16036200014b5760006040517fec442f0500000000000000000000000000000000000000000000000000000000815260040162000142919062000739565b60405180910390fd5b6200015f600083836200016360201b60201c565b5050565b600073ffffffffffffffffffffffffffffffffffffffff168373ffffffffffffffffffffffffffffffffffffffff1603620001b9578060026000828254620001ac919062000785565b925050819055506200028f565b60008060008573ffffffffffffffffffffffffffffffffffffffff1673ffffffffffffffffffffffffffffffffffffffff1681526020019081526020016000205490508181101562000248578381836040517fe450d38c0000000000000000000000000000000000000000000000000000000081526004016200023f93929190620007d1565b60405180910390fd5b8181036000808673ffffffffffffffffffffffffffffffffffffffff1673ffffffffffffffffffffffffffffffffffffffff16815260200190815260200160002081905550505b600073ffffffffffffffffffffffffffffffffffffffff168273ffffffffffffffffffffffffffffffffffffffff1603620002da578060026000828254039250508190555062000327565b806000808473ffffffffffffffffffffffffffffffffffffffff1673ffffffffffffffffffffffffffffffffffffffff168152602001908152602001600020600082825401925050819055505b8173ffffffffffffffffffffffffffffffffffffffff168373ffffffffffffffffffffffffffffffffffffffff167fddf252ad1be2c89b69c2b068fc378daa952ba7f163c4a11628f55a4df523b3ef836040516200038691906200080e565b60405180910390a3505050565b600081519050919050565b7f4e487b7100000000000000000000000000000000000000000000000000000000600052604160045260246000fd5b7f4e487b7100000000000000000000000000000000000000000000000000000000600052602260045260246000fd5b600060028204905060018216806200041557607f821691505b6020821081036200042b576200042a620003cd565b5b50919050565b60008190508160005260206000209050919050565b60006020601f8301049050919050565b600082821b905092915050565b600060088302620004957fffffffffffffffffffffffffffffffffffffffffffffffffffffffffffffffff8262000456565b620004a1868362000456565b95508019841693508086168417925050509392505050565b6000819050919050565b6000819050919050565b6000620004ee620004e8620004e284620004b9565b620004c3565b620004b9565b9050919050565b6000819050919050565b6200050a83620004cd565b620005226200051982620004f5565b84845462000463565b825550505050565b600090565b620005396200052a565b62000546818484620004ff565b505050565b5b818110156200056e57620005626000826200052f565b6001810190506200054c565b5050565b601f821115620005bd57620005878162000431565b620005928462000446565b81016020851015620005a2578190505b620005ba620005b18562000446565b8301826200054b565b50505b505050565b600082821c905092915050565b6000620005e260001984600802620005c2565b1980831691505092915050565b6000620005fd8383620005cf565b9150826002028217905092915050565b620006188262000393565b67ffffffffffffffff8111156200063457620006336200039e565b5b620006408254620003fc565b6200064d82828562000572565b600060209050601f83116001811462000685576000841562000670578287015190505b6200067c8582620005ef565b865550620006ec565b601f198416620006958662000431565b60005b82811015620006bf5784890151825560018201915060208501945060208101905062000698565b86831015620006df5784890151620006db601f891682620005cf565b8355505b6001600288020188555050505b505050505050565b600073ffffffffffffffffffffffffffffffffffffffff82169050919050565b60006200072182620006f4565b9050919050565b620007338162000714565b82525050565b600060208201905062000750600083018462000728565b92915050565b7f4e487b7100000000000000000000000000000000000000000000000000000000600052601160045260246000fd5b60006200079282620004b9565b91506200079f83620004b9565b9250828201905080821115620007ba57620007b962000756565b5b92915050565b620007cb81620004b9565b82525050565b6000606082019050620007e8600083018662000728565b620007f76020830185620007c0565b620008066040830184620007c0565b949350505050565b6000602082019050620008256000830184620007c0565b92915050565b61116c806200083b6000396000f3fe6080604052600436106100c25760003560e01c80637ffdf53e1161007f578063b69ef8a811610059578063b69ef8a814610292578063d0febe4c146102bd578063dd62ed3e146102c7578063f8b2cb4f14610304576100c2565b80637ffdf53e146101ff57806395d89b411461022a578063a9059cbb14610255576100c2565b806306fdde03146100c7578063095ea7b3146100f257806318160ddd1461012f57806323b872dd1461015a578063313ce5671461019757806370a08231146101c2575b600080fd5b3480156100d357600080fd5b506100dc610341565b6040516100e99190610cec565b60405180910390f35b3480156100fe57600080fd5b5061011960048036038101906101149190610da7565b6103d3565b6040516101269190610e02565b60405180910390f35b34801561013b57600080fd5b506101446103f6565b6040516101519190610e2c565b60405180910390f35b34801561016657600080fd5b50610181600480360381019061017c9190610e47565b610400565b60405161018e9190610e02565b60405180910390f35b3480156101a357600080fd5b506101ac61042f565b6040516101b99190610eb6565b60405180910390f35b3480156101ce57600080fd5b506101e960048036038101906101e49190610ed1565b610438565b6040516101f69190610e2c565b60405180910390f35b34801561020b57600080fd5b50610214610480565b6040516102219190610e2c565b60405180910390f35b34801561023657600080fd5b5061023f610486565b60405161024c9190610cec565b60405180910390f35b34801561026157600080fd5b5061027c60048036038101906102779190610da7565b610518565b6040516102899190610e02565b60405180910390f35b34801561029e57600080fd5b506102a761053b565b6040516102b49190610e2c565b60405180910390f35b6102c5610541565b005b3480156102d357600080fd5b506102ee60048036038101906102e99190610efe565b6105a3565b6040516102fb9190610e2c565b60405180910390f35b34801561031057600080fd5b5061032b60048036038101906103269190610ed1565b61062a565b6040516103389190610e2c565b60405180910390f35b60606003805461035090610f6d565b80601f016020809104026020016040519081016040528092919081815260200182805461037c90610f6d565b80156103c95780601f1061039e576101008083540402835291602001916103c9565b820191906000526020600020905b8154815290600101906020018083116103ac57829003601f168201915b5050505050905090565b6000806103de61063c565b90506103eb818585610644565b600191505092915050565b6000600254905090565b60008061040b61063c565b9050610418858285610656565b6104238585856106ea565b60019150509392505050565b60006012905090565b60008060008373ffffffffffffffffffffffffffffffffffffffff1673ffffffffffffffffffffffffffffffffffffffff168152602001908152602001600020549050919050565b60055481565b60606004805461049590610f6d565b80601f01602080910402602001604051908101604052809291908181526020018280546104c190610f6d565b801561050e5780601f106104e35761010080835404028352916020019161050e565b820191906000526020600020905b8154815290600101906020018083116104f157829003601f168201915b5050505050905090565b60008061052361063c565b90506105308185856106ea565b600191505092915050565b60065481565b60003411610584576040517f08c379a000000000000000000000000000000000000000000000000000000000815260040161057b90611010565b60405180910390fd5b600060055434610594919061105f565b90506105a033826107de565b50565b6000600160008473ffffffffffffffffffffffffffffffffffffffff1673ffffffffffffffffffffffffffffffffffffffff16815260200190815260200160002060008373ffffffffffffffffffffffffffffffffffffffff1673ffffffffffffffffffffffffffffffffffffffff16815260200190815260200160002054905092915050565b600061063582610438565b9050919050565b600033905090565b6106518383836001610860565b505050565b600061066284846105a3565b90507fffffffffffffffffffffffffffffffffffffffffffffffffffffffffffffffff81146106e457818110156106d4578281836040517ffb8f41b20000000000000000000000000000000000000000000000000000000081526004016106cb939291906110b0565b60405180910390fd5b6106e384848484036000610860565b5b50505050565b600073ffffffffffffffffffffffffffffffffffffffff168373ffffffffffffffffffffffffffffffffffffffff160361075c5760006040517f96c6fd1e00000000000000000000000000000000000000000000000000000000815260040161075391906110e7565b60405180910390fd5b600073ffffffffffffffffffffffffffffffffffffffff168273ffffffffffffffffffffffffffffffffffffffff16036107ce5760006040517fec442f050000000000000000000000000000000000000000000000000000000081526004016107c591906110e7565b60405180910390fd5b6107d9838383610a37565b505050565b600073ffffffffffffffffffffffffffffffffffffffff168273ffffffffffffffffffffffffffffffffffffffff16036108505760006040517fec442f0500000000000000000000000000000000000000000000000000000000815260040161084791906110e7565b60405180910390fd5b61085c60008383610a37565b5050565b600073ffffffffffffffffffffffffffffffffffffffff168473ffffffffffffffffffffffffffffffffffffffff16036108d25760006040517fe602df050000000000000000000000000000000000000000000000000000000081526004016108c991906110e7565b60405180910390fd5b600073ffffffffffffffffffffffffffffffffffffffff168373ffffffffffffffffffffffffffffffffffffffff16036109445760006040517f94280d6200000000000000000000000000000000000000000000000000000000815260040161093b91906110e7565b60405180910390fd5b81600160008673ffffffffffffffffffffffffffffffffffffffff1673ffffffffffffffffffffffffffffffffffffffff16815260200190815260200160002060008573ffffffffffffffffffffffffffffffffffffffff1673ffffffffffffffffffffffffffffffffffffffff168152602001908152602001600020819055508015610a31578273ffffffffffffffffffffffffffffffffffffffff168473ffffffffffffffffffffffffffffffffffffffff167f8c5be1e5ebec7d5bd14f71427d1e84f3dd0314c0f7b2291e5b200ac8c7c3b92584604051610a289190610e2c565b60405180910390a35b50505050565b600073ffffffffffffffffffffffffffffffffffffffff168373ffffffffffffffffffffffffffffffffffffffff1603610a89578060026000828254610a7d9190611102565b92505081905550610b5c565b60008060008573ffffffffffffffffffffffffffffffffffffffff1673ffffffffffffffffffffffffffffffffffffffff16815260200190815260200160002054905081811015610b15578381836040517fe450d38c000000000000000000000000000000000000000000000000000000008152600401610b0c939291906110b0565b60405180910390fd5b8181036000808673ffffffffffffffffffffffffffffffffffffffff1673ffffffffffffffffffffffffffffffffffffffff16815260200190815260200160002081905550505b600073ffffffffffffffffffffffffffffffffffffffff168273ffffffffffffffffffffffffffffffffffffffff1603610ba55780600260008282540392505081905550610bf2565b806000808473ffffffffffffffffffffffffffffffffffffffff1673ffffffffffffffffffffffffffffffffffffffff168152602001908152602001600020600082825401925050819055505b8173ffffffffffffffffffffffffffffffffffffffff168373ffffffffffffffffffffffffffffffffffffffff167fddf252ad1be2c89b69c2b068fc378daa952ba7f163c4a11628f55a4df523b3ef83604051610c4f9190610e2c565b60405180910390a3505050565b600081519050919050565b600082825260208201905092915050565b60005b83811015610c96578082015181840152602081019050610c7b565b60008484015250505050565b6000601f19601f8301169050919050565b6000610cbe82610c5c565b610cc88185610c67565b9350610cd8818560208601610c78565b610ce181610ca2565b840191505092915050565b60006020820190508181036000830152610d068184610cb3565b905092915050565b600080fd5b600073ffffffffffffffffffffffffffffffffffffffff82169050919050565b6000610d3e82610d13565b9050919050565b610d4e81610d33565b8114610d5957600080fd5b50565b600081359050610d6b81610d45565b92915050565b6000819050919050565b610d8481610d71565b8114610d8f57600080fd5b50565b600081359050610da181610d7b565b92915050565b60008060408385031215610dbe57610dbd610d0e565b5b6000610dcc85828601610d5c565b9250506020610ddd85828601610d92565b9150509250929050565b60008115159050919050565b610dfc81610de7565b82525050565b6000602082019050610e176000830184610df3565b92915050565b610e2681610d71565b82525050565b6000602082019050610e416000830184610e1d565b92915050565b600080600060608486031215610e6057610e5f610d0e565b5b6000610e6e86828701610d5c565b9350506020610e7f86828701610d5c565b9250506040610e9086828701610d92565b9150509250925092565b600060ff82169050919050565b610eb081610e9a565b82525050565b6000602082019050610ecb6000830184610ea7565b92915050565b600060208284031215610ee757610ee6610d0e565b5b6000610ef584828501610d5c565b91505092915050565b60008060408385031215610f1557610f14610d0e565b5b6000610f2385828601610d5c565b9250506020610f3485828601610d5c565b9150509250929050565b7f4e487b7100000000000000000000000000000000000000000000000000000000600052602260045260246000fd5b60006002820490506001821680610f8557607f821691505b602082108103610f9857610f97610f3e565b5b50919050565b7f457468657220616d6f756e74206d75737420626520677265617465722074686160008201527f6e20300000000000000000000000000000000000000000000000000000000000602082015250565b6000610ffa602383610c67565b915061100582610f9e565b604082019050919050565b6000602082019050818103600083015261102981610fed565b9050919050565b7f4e487b7100000000000000000000000000000000000000000000000000000000600052601160045260246000fd5b600061106a82610d71565b915061107583610d71565b925082820261108381610d71565b9150828204841483151761109a57611099611030565b5b5092915050565b6110aa81610d33565b82525050565b60006060820190506110c560008301866110a1565b6110d26020830185610e1d565b6110df6040830184610e1d565b949350505050565b60006020820190506110fc60008301846110a1565b92915050565b600061110d82610d71565b915061111883610d71565b92508282019050808211156111305761112f611030565b5b9291505056fea2646970667358221220d1652a77570b9c361caa4771cf2e303203c8cb5a5f1395710c466bccfd3ecbc464736f6c63430008140033",
    "linkReferences": {},
    "deployedLinkReferences": {}
}