{
    "_format": "hh-sol-artifact-1",
    "contractName": "Communities",
    "sourceName": "contracts/Communities.sol",
    "abi": [
        {
            "inputs": [],
            "stateMutability": "nonpayable",
            "type": "constructor"
        },
        {
            "inputs": [
                {
                    "internalType": "string",
                    "name": "title1",
                    "type": "string"
                },
                {
                    "internalType": "string",
                    "name": "description1",
                    "type": "string"
                },
                {
                    "internalType": "uint256",
                    "name": "initialTokens",
                    "type": "uint256"
                },
                {
                    "internalType": "uint256",
                    "name": "conversionRate",
                    "type": "uint256"
                },
                {
                    "internalType": "string",
                    "name": "name",
                    "type": "string"
                },
                {
                    "internalType": "string",
                    "name": "symbol",
                    "type": "string"
                }
            ],
            "name": "createCommunity",
            "outputs": [],
            "stateMutability": "nonpayable",
            "type": "function"
        }
    ],
    "bytecode": "0x608060405234801561001057600080fd5b5061352c806100206000396000f3fe60806040523480156200001157600080fd5b50600436106200002e5760003560e01c80633300aaec1462000033575b600080fd5b6200005160048036038101906200004b9190620003f3565b62000053565b005b6000868686868686604051620000699062000234565b6200007a96959493929190620005a5565b604051809103906000f08015801562000097573d6000803e3d6000fd5b509050600060405180606001604052808373ffffffffffffffffffffffffffffffffffffffff1681526020018981526020018373ffffffffffffffffffffffffffffffffffffffff16634d0047ee6040518163ffffffff1660e01b8152600401602060405180830381865afa15801562000115573d6000803e3d6000fd5b505050506040513d601f19601f820116820180604052508101906200013b919062000693565b73ffffffffffffffffffffffffffffffffffffffff168152509050600081908060018154018082558091505060019003906000526020600020906003020160009091909190915060008201518160000160006101000a81548173ffffffffffffffffffffffffffffffffffffffff021916908373ffffffffffffffffffffffffffffffffffffffff1602179055506020820151816001019081620001e09190620008fb565b5060408201518160020160006101000a81548173ffffffffffffffffffffffffffffffffffffffff021916908373ffffffffffffffffffffffffffffffffffffffff16021790555050505050505050505050565b612b1480620009e383390190565b6000604051905090565b600080fd5b600080fd5b600080fd5b600080fd5b6000601f19601f8301169050919050565b7f4e487b7100000000000000000000000000000000000000000000000000000000600052604160045260246000fd5b620002ab8262000260565b810181811067ffffffffffffffff82111715620002cd57620002cc62000271565b5b80604052505050565b6000620002e262000242565b9050620002f08282620002a0565b919050565b600067ffffffffffffffff82111562000313576200031262000271565b5b6200031e8262000260565b9050602081019050919050565b82818337600083830152505050565b6000620003516200034b84620002f5565b620002d6565b90508281526020810184848401111562000370576200036f6200025b565b5b6200037d8482856200032b565b509392505050565b600082601f8301126200039d576200039c62000256565b5b8135620003af8482602086016200033a565b91505092915050565b6000819050919050565b620003cd81620003b8565b8114620003d957600080fd5b50565b600081359050620003ed81620003c2565b92915050565b60008060008060008060c087890312156200041357620004126200024c565b5b600087013567ffffffffffffffff81111562000434576200043362000251565b5b6200044289828a0162000385565b965050602087013567ffffffffffffffff81111562000466576200046562000251565b5b6200047489828a0162000385565b95505060406200048789828a01620003dc565b94505060606200049a89828a01620003dc565b935050608087013567ffffffffffffffff811115620004be57620004bd62000251565b5b620004cc89828a0162000385565b92505060a087013567ffffffffffffffff811115620004f057620004ef62000251565b5b620004fe89828a0162000385565b9150509295509295509295565b600081519050919050565b600082825260208201905092915050565b60005b83811015620005475780820151818401526020810190506200052a565b60008484015250505050565b600062000560826200050b565b6200056c818562000516565b93506200057e81856020860162000527565b620005898162000260565b840191505092915050565b6200059f81620003b8565b82525050565b600060c0820190508181036000830152620005c1818962000553565b90508181036020830152620005d7818862000553565b9050620005e8604083018762000594565b620005f7606083018662000594565b81810360808301526200060b818562000553565b905081810360a083015262000621818462000553565b9050979650505050505050565b600073ffffffffffffffffffffffffffffffffffffffff82169050919050565b60006200065b826200062e565b9050919050565b6200066d816200064e565b81146200067957600080fd5b50565b6000815190506200068d8162000662565b92915050565b600060208284031215620006ac57620006ab6200024c565b5b6000620006bc848285016200067c565b91505092915050565b7f4e487b7100000000000000000000000000000000000000000000000000000000600052602260045260246000fd5b600060028204905060018216806200070d57607f821691505b602082108103620007235762000722620006c5565b5b50919050565b60008190508160005260206000209050919050565b60006020601f8301049050919050565b600082821b905092915050565b6000600883026200078d7fffffffffffffffffffffffffffffffffffffffffffffffffffffffffffffffff826200074e565b6200079986836200074e565b95508019841693508086168417925050509392505050565b6000819050919050565b6000620007dc620007d6620007d084620003b8565b620007b1565b620003b8565b9050919050565b6000819050919050565b620007f883620007bb565b620008106200080782620007e3565b8484546200075b565b825550505050565b600090565b6200082762000818565b62000834818484620007ed565b505050565b5b818110156200085c57620008506000826200081d565b6001810190506200083a565b5050565b601f821115620008ab57620008758162000729565b62000880846200073e565b8101602085101562000890578190505b620008a86200089f856200073e565b83018262000839565b50505b505050565b600082821c905092915050565b6000620008d060001984600802620008b0565b1980831691505092915050565b6000620008eb8383620008bd565b9150826002028217905092915050565b62000906826200050b565b67ffffffffffffffff81111562000922576200092162000271565b5b6200092e8254620006f4565b6200093b82828562000860565b600060209050601f8311600181146200097357600084156200095e578287015190505b6200096a8582620008dd565b865550620009da565b601f198416620009838662000729565b60005b82811015620009ad5784890151825560018201915060208501945060208101905062000986565b86831015620009cd5784890151620009c9601f891682620008bd565b8355505b6001600288020188555050505b50505050505056fe60806040523480156200001157600080fd5b5060405162002b1438038062002b148339818101604052810190620000379190620004d0565b856002908162000048919062000829565b5084600390816200005a919062000829565b50336000806101000a81548173ffffffffffffffffffffffffffffffffffffffff021916908373ffffffffffffffffffffffffffffffffffffffff1602179055507338b23c06be9c1bee388305153737f3de98a763e5600460006101000a81548173ffffffffffffffffffffffffffffffffffffffff021916908373ffffffffffffffffffffffffffffffffffffffff160217905550600460009054906101000a900473ffffffffffffffffffffffffffffffffffffffff16600160006101000a81548173ffffffffffffffffffffffffffffffffffffffff021916908373ffffffffffffffffffffffffffffffffffffffff160217905550818184866200016391906200093f565b6040516200017190620002f4565b6200017f93929190620009ed565b604051809103906000f0801580156200019c573d6000803e3d6000fd5b50600560006101000a81548173ffffffffffffffffffffffffffffffffffffffff021916908373ffffffffffffffffffffffffffffffffffffffff160217905550600160009054906101000a900473ffffffffffffffffffffffffffffffffffffffff1673ffffffffffffffffffffffffffffffffffffffff166323b872dd3330876040518463ffffffff1660e01b81526004016200023e9392919062000a7d565b6020604051808303816000875af11580156200025e573d6000803e3d6000fd5b505050506040513d601f19601f8201168201806040525081019062000284919062000af7565b50600560009054906101000a900473ffffffffffffffffffffffffffffffffffffffff16600660006101000a81548173ffffffffffffffffffffffffffffffffffffffff021916908373ffffffffffffffffffffffffffffffffffffffff16021790555050505050505062000b29565b611ce58062000e2f83390190565b6000604051905090565b600080fd5b600080fd5b600080fd5b600080fd5b6000601f19601f8301169050919050565b7f4e487b7100000000000000000000000000000000000000000000000000000000600052604160045260246000fd5b6200036b8262000320565b810181811067ffffffffffffffff821117156200038d576200038c62000331565b5b80604052505050565b6000620003a262000302565b9050620003b0828262000360565b919050565b600067ffffffffffffffff821115620003d357620003d262000331565b5b620003de8262000320565b9050602081019050919050565b60005b838110156200040b578082015181840152602081019050620003ee565b60008484015250505050565b60006200042e6200042884620003b5565b62000396565b9050828152602081018484840111156200044d576200044c6200031b565b5b6200045a848285620003eb565b509392505050565b600082601f8301126200047a576200047962000316565b5b81516200048c84826020860162000417565b91505092915050565b6000819050919050565b620004aa8162000495565b8114620004b657600080fd5b50565b600081519050620004ca816200049f565b92915050565b60008060008060008060c08789031215620004f057620004ef6200030c565b5b600087015167ffffffffffffffff81111562000511576200051062000311565b5b6200051f89828a0162000462565b965050602087015167ffffffffffffffff81111562000543576200054262000311565b5b6200055189828a0162000462565b95505060406200056489828a01620004b9565b94505060606200057789828a01620004b9565b935050608087015167ffffffffffffffff8111156200059b576200059a62000311565b5b620005a989828a0162000462565b92505060a087015167ffffffffffffffff811115620005cd57620005cc62000311565b5b620005db89828a0162000462565b9150509295509295509295565b600081519050919050565b7f4e487b7100000000000000000000000000000000000000000000000000000000600052602260045260246000fd5b600060028204905060018216806200063b57607f821691505b602082108103620006515762000650620005f3565b5b50919050565b60008190508160005260206000209050919050565b60006020601f8301049050919050565b600082821b905092915050565b600060088302620006bb7fffffffffffffffffffffffffffffffffffffffffffffffffffffffffffffffff826200067c565b620006c786836200067c565b95508019841693508086168417925050509392505050565b6000819050919050565b60006200070a62000704620006fe8462000495565b620006df565b62000495565b9050919050565b6000819050919050565b6200072683620006e9565b6200073e620007358262000711565b84845462000689565b825550505050565b600090565b6200075562000746565b620007628184846200071b565b505050565b5b818110156200078a576200077e6000826200074b565b60018101905062000768565b5050565b601f821115620007d957620007a38162000657565b620007ae846200066c565b81016020851015620007be578190505b620007d6620007cd856200066c565b83018262000767565b50505b505050565b600082821c905092915050565b6000620007fe60001984600802620007de565b1980831691505092915050565b6000620008198383620007eb565b9150826002028217905092915050565b6200083482620005e8565b67ffffffffffffffff81111562000850576200084f62000331565b5b6200085c825462000622565b620008698282856200078e565b600060209050601f831160018114620008a157600084156200088c578287015190505b6200089885826200080b565b86555062000908565b601f198416620008b18662000657565b60005b82811015620008db57848901518255600182019150602085019450602081019050620008b4565b86831015620008fb5784890151620008f7601f891682620007eb565b8355505b6001600288020188555050505b505050505050565b7f4e487b7100000000000000000000000000000000000000000000000000000000600052601160045260246000fd5b60006200094c8262000495565b9150620009598362000495565b9250828202620009698162000495565b9150828204841483151762000983576200098262000910565b5b5092915050565b600082825260208201905092915050565b6000620009a882620005e8565b620009b481856200098a565b9350620009c6818560208601620003eb565b620009d18162000320565b840191505092915050565b620009e78162000495565b82525050565b6000606082019050818103600083015262000a0981866200099b565b9050818103602083015262000a1f81856200099b565b905062000a306040830184620009dc565b949350505050565b600073ffffffffffffffffffffffffffffffffffffffff82169050919050565b600062000a658262000a38565b9050919050565b62000a778162000a58565b82525050565b600060608201905062000a94600083018662000a6c565b62000aa3602083018562000a6c565b62000ab26040830184620009dc565b949350505050565b60008115159050919050565b62000ad18162000aba565b811462000add57600080fd5b50565b60008151905062000af18162000ac6565b92915050565b60006020828403121562000b105762000b0f6200030c565b5b600062000b208482850162000ae0565b91505092915050565b6102f68062000b396000396000f3fe608060405234801561001057600080fd5b50600436106100575760003560e01c806326b85ee11461005c578063295854301461007a5780634d0047ee146100985780638da5cb5b146100b6578063f7e7943c146100d4575b600080fd5b6100646100f2565b60405161007191906101ef565b60405180910390f35b610082610118565b60405161008f9190610269565b60405180910390f35b6100a061013e565b6040516100ad91906101ef565b60405180910390f35b6100be610164565b6040516100cb91906101ef565b60405180910390f35b6100dc610188565b6040516100e991906102a5565b60405180910390f35b600460009054906101000a900473ffffffffffffffffffffffffffffffffffffffff1681565b600560009054906101000a900473ffffffffffffffffffffffffffffffffffffffff1681565b600660009054906101000a900473ffffffffffffffffffffffffffffffffffffffff1681565b60008054906101000a900473ffffffffffffffffffffffffffffffffffffffff1681565b600160009054906101000a900473ffffffffffffffffffffffffffffffffffffffff1681565b600073ffffffffffffffffffffffffffffffffffffffff82169050919050565b60006101d9826101ae565b9050919050565b6101e9816101ce565b82525050565b600060208201905061020460008301846101e0565b92915050565b6000819050919050565b600061022f61022a610225846101ae565b61020a565b6101ae565b9050919050565b600061024182610214565b9050919050565b600061025382610236565b9050919050565b61026381610248565b82525050565b600060208201905061027e600083018461025a565b92915050565b600061028f82610236565b9050919050565b61029f81610284565b82525050565b60006020820190506102ba6000830184610296565b9291505056fea2646970667358221220b9e93673af41533708435be290da8781dd31765524879642090f14a98455db3f64736f6c63430008140033608060405260646006553480156200001657600080fd5b5060405162001ce538038062001ce583398181016040528101906200003c91906200051f565b828281600390816200004f9190620007fa565b508060049081620000619190620007fa565b5050506200008b33670de0b6b3a7640000836200007f919062000910565b6200009460201b60201c565b50505062000a63565b600073ffffffffffffffffffffffffffffffffffffffff168273ffffffffffffffffffffffffffffffffffffffff1603620001095760006040517fec442f05000000000000000000000000000000000000000000000000000000008152600401620001009190620009a0565b60405180910390fd5b6200011d600083836200012160201b60201c565b5050565b600073ffffffffffffffffffffffffffffffffffffffff168373ffffffffffffffffffffffffffffffffffffffff1603620001775780600260008282546200016a9190620009bd565b925050819055506200024d565b60008060008573ffffffffffffffffffffffffffffffffffffffff1673ffffffffffffffffffffffffffffffffffffffff1681526020019081526020016000205490508181101562000206578381836040517fe450d38c000000000000000000000000000000000000000000000000000000008152600401620001fd9392919062000a09565b60405180910390fd5b8181036000808673ffffffffffffffffffffffffffffffffffffffff1673ffffffffffffffffffffffffffffffffffffffff16815260200190815260200160002081905550505b600073ffffffffffffffffffffffffffffffffffffffff168273ffffffffffffffffffffffffffffffffffffffff1603620002985780600260008282540392505081905550620002e5565b806000808473ffffffffffffffffffffffffffffffffffffffff1673ffffffffffffffffffffffffffffffffffffffff168152602001908152602001600020600082825401925050819055505b8173ffffffffffffffffffffffffffffffffffffffff168373ffffffffffffffffffffffffffffffffffffffff167fddf252ad1be2c89b69c2b068fc378daa952ba7f163c4a11628f55a4df523b3ef8360405162000344919062000a46565b60405180910390a3505050565b6000604051905090565b600080fd5b600080fd5b600080fd5b600080fd5b6000601f19601f8301169050919050565b7f4e487b7100000000000000000000000000000000000000000000000000000000600052604160045260246000fd5b620003ba826200036f565b810181811067ffffffffffffffff82111715620003dc57620003db62000380565b5b80604052505050565b6000620003f162000351565b9050620003ff8282620003af565b919050565b600067ffffffffffffffff82111562000422576200042162000380565b5b6200042d826200036f565b9050602081019050919050565b60005b838110156200045a5780820151818401526020810190506200043d565b60008484015250505050565b60006200047d620004778462000404565b620003e5565b9050828152602081018484840111156200049c576200049b6200036a565b5b620004a98482856200043a565b509392505050565b600082601f830112620004c957620004c862000365565b5b8151620004db84826020860162000466565b91505092915050565b6000819050919050565b620004f981620004e4565b81146200050557600080fd5b50565b6000815190506200051981620004ee565b92915050565b6000806000606084860312156200053b576200053a6200035b565b5b600084015167ffffffffffffffff8111156200055c576200055b62000360565b5b6200056a86828701620004b1565b935050602084015167ffffffffffffffff8111156200058e576200058d62000360565b5b6200059c86828701620004b1565b9250506040620005af8682870162000508565b9150509250925092565b600081519050919050565b7f4e487b7100000000000000000000000000000000000000000000000000000000600052602260045260246000fd5b600060028204905060018216806200060c57607f821691505b602082108103620006225762000621620005c4565b5b50919050565b60008190508160005260206000209050919050565b60006020601f8301049050919050565b600082821b905092915050565b6000600883026200068c7fffffffffffffffffffffffffffffffffffffffffffffffffffffffffffffffff826200064d565b6200069886836200064d565b95508019841693508086168417925050509392505050565b6000819050919050565b6000620006db620006d5620006cf84620004e4565b620006b0565b620004e4565b9050919050565b6000819050919050565b620006f783620006ba565b6200070f6200070682620006e2565b8484546200065a565b825550505050565b600090565b6200072662000717565b62000733818484620006ec565b505050565b5b818110156200075b576200074f6000826200071c565b60018101905062000739565b5050565b601f821115620007aa57620007748162000628565b6200077f846200063d565b810160208510156200078f578190505b620007a76200079e856200063d565b83018262000738565b50505b505050565b600082821c905092915050565b6000620007cf60001984600802620007af565b1980831691505092915050565b6000620007ea8383620007bc565b9150826002028217905092915050565b6200080582620005b9565b67ffffffffffffffff81111562000821576200082062000380565b5b6200082d8254620005f3565b6200083a8282856200075f565b600060209050601f8311600181146200087257600084156200085d578287015190505b620008698582620007dc565b865550620008d9565b601f198416620008828662000628565b60005b82811015620008ac5784890151825560018201915060208501945060208101905062000885565b86831015620008cc5784890151620008c8601f891682620007bc565b8355505b6001600288020188555050505b505050505050565b7f4e487b7100000000000000000000000000000000000000000000000000000000600052601160045260246000fd5b60006200091d82620004e4565b91506200092a83620004e4565b92508282026200093a81620004e4565b91508282048414831517620009545762000953620008e1565b5b5092915050565b600073ffffffffffffffffffffffffffffffffffffffff82169050919050565b600062000988826200095b565b9050919050565b6200099a816200097b565b82525050565b6000602082019050620009b760008301846200098f565b92915050565b6000620009ca82620004e4565b9150620009d783620004e4565b9250828201905080821115620009f257620009f1620008e1565b5b92915050565b62000a0381620004e4565b82525050565b600060608201905062000a2060008301866200098f565b62000a2f6020830185620009f8565b62000a3e6040830184620009f8565b949350505050565b600060208201905062000a5d6000830184620009f8565b92915050565b6112728062000a736000396000f3fe608060405234801561001057600080fd5b50600436106100a95760003560e01c8063313ce56711610071578063313ce5671461016657806370a082311461018457806395d89b41146101b4578063a9059cbb146101d2578063dd62ed3e14610202578063f7e7943c14610232576100a9565b806306fdde03146100ae578063095ea7b3146100cc57806318160ddd146100fc5780632130af9e1461011a57806323b872dd14610136575b600080fd5b6100b6610250565b6040516100c39190610ca8565b60405180910390f35b6100e660048036038101906100e19190610d63565b6102e2565b6040516100f39190610dbe565b60405180910390f35b610104610305565b6040516101119190610de8565b60405180910390f35b610134600480360381019061012f9190610e03565b61030f565b005b610150600480360381019061014b9190610e43565b610416565b60405161015d9190610dbe565b60405180910390f35b61016e610445565b60405161017b9190610eb2565b60405180910390f35b61019e60048036038101906101999190610ecd565b61044e565b6040516101ab9190610de8565b60405180910390f35b6101bc610496565b6040516101c99190610ca8565b60405180910390f35b6101ec60048036038101906101e79190610d63565b610528565b6040516101f99190610dbe565b60405180910390f35b61021c60048036038101906102179190610efa565b61054b565b6040516102299190610de8565b60405180910390f35b61023a6105d2565b6040516102479190610f99565b60405180910390f35b60606003805461025f90610fe3565b80601f016020809104026020016040519081016040528092919081815260200182805461028b90610fe3565b80156102d85780601f106102ad576101008083540402835291602001916102d8565b820191906000526020600020905b8154815290600101906020018083116102bb57829003601f168201915b5050505050905090565b6000806102ed6105f8565b90506102fa818585610600565b600191505092915050565b6000600254905090565b60008211610352576040517f08c379a000000000000000000000000000000000000000000000000000000000815260040161034990611086565b60405180910390fd5b600560009054906101000a900473ffffffffffffffffffffffffffffffffffffffff1673ffffffffffffffffffffffffffffffffffffffff166323b872dd3383856040518463ffffffff1660e01b81526004016103b1939291906110b5565b6020604051808303816000875af11580156103d0573d6000803e3d6000fd5b505050506040513d601f19601f820116820180604052508101906103f49190611118565b506000600654836104059190611174565b90506104113382610612565b505050565b6000806104216105f8565b905061042e858285610694565b610439858585610728565b60019150509392505050565b60006012905090565b60008060008373ffffffffffffffffffffffffffffffffffffffff1673ffffffffffffffffffffffffffffffffffffffff168152602001908152602001600020549050919050565b6060600480546104a590610fe3565b80601f01602080910402602001604051908101604052809291908181526020018280546104d190610fe3565b801561051e5780601f106104f35761010080835404028352916020019161051e565b820191906000526020600020905b81548152906001019060200180831161050157829003601f168201915b5050505050905090565b6000806105336105f8565b9050610540818585610728565b600191505092915050565b6000600160008473ffffffffffffffffffffffffffffffffffffffff1673ffffffffffffffffffffffffffffffffffffffff16815260200190815260200160002060008373ffffffffffffffffffffffffffffffffffffffff1673ffffffffffffffffffffffffffffffffffffffff16815260200190815260200160002054905092915050565b600560009054906101000a900473ffffffffffffffffffffffffffffffffffffffff1681565b600033905090565b61060d838383600161081c565b505050565b600073ffffffffffffffffffffffffffffffffffffffff168273ffffffffffffffffffffffffffffffffffffffff16036106845760006040517fec442f0500000000000000000000000000000000000000000000000000000000815260040161067b91906111b6565b60405180910390fd5b610690600083836109f3565b5050565b60006106a0848461054b565b90507fffffffffffffffffffffffffffffffffffffffffffffffffffffffffffffffff81146107225781811015610712578281836040517ffb8f41b2000000000000000000000000000000000000000000000000000000008152600401610709939291906111d1565b60405180910390fd5b6107218484848403600061081c565b5b50505050565b600073ffffffffffffffffffffffffffffffffffffffff168373ffffffffffffffffffffffffffffffffffffffff160361079a5760006040517f96c6fd1e00000000000000000000000000000000000000000000000000000000815260040161079191906111b6565b60405180910390fd5b600073ffffffffffffffffffffffffffffffffffffffff168273ffffffffffffffffffffffffffffffffffffffff160361080c5760006040517fec442f0500000000000000000000000000000000000000000000000000000000815260040161080391906111b6565b60405180910390fd5b6108178383836109f3565b505050565b600073ffffffffffffffffffffffffffffffffffffffff168473ffffffffffffffffffffffffffffffffffffffff160361088e5760006040517fe602df0500000000000000000000000000000000000000000000000000000000815260040161088591906111b6565b60405180910390fd5b600073ffffffffffffffffffffffffffffffffffffffff168373ffffffffffffffffffffffffffffffffffffffff16036109005760006040517f94280d620000000000000000000000000000000000000000000000000000000081526004016108f791906111b6565b60405180910390fd5b81600160008673ffffffffffffffffffffffffffffffffffffffff1673ffffffffffffffffffffffffffffffffffffffff16815260200190815260200160002060008573ffffffffffffffffffffffffffffffffffffffff1673ffffffffffffffffffffffffffffffffffffffff1681526020019081526020016000208190555080156109ed578273ffffffffffffffffffffffffffffffffffffffff168473ffffffffffffffffffffffffffffffffffffffff167f8c5be1e5ebec7d5bd14f71427d1e84f3dd0314c0f7b2291e5b200ac8c7c3b925846040516109e49190610de8565b60405180910390a35b50505050565b600073ffffffffffffffffffffffffffffffffffffffff168373ffffffffffffffffffffffffffffffffffffffff1603610a45578060026000828254610a399190611208565b92505081905550610b18565b60008060008573ffffffffffffffffffffffffffffffffffffffff1673ffffffffffffffffffffffffffffffffffffffff16815260200190815260200160002054905081811015610ad1578381836040517fe450d38c000000000000000000000000000000000000000000000000000000008152600401610ac8939291906111d1565b60405180910390fd5b8181036000808673ffffffffffffffffffffffffffffffffffffffff1673ffffffffffffffffffffffffffffffffffffffff16815260200190815260200160002081905550505b600073ffffffffffffffffffffffffffffffffffffffff168273ffffffffffffffffffffffffffffffffffffffff1603610b615780600260008282540392505081905550610bae565b806000808473ffffffffffffffffffffffffffffffffffffffff1673ffffffffffffffffffffffffffffffffffffffff168152602001908152602001600020600082825401925050819055505b8173ffffffffffffffffffffffffffffffffffffffff168373ffffffffffffffffffffffffffffffffffffffff167fddf252ad1be2c89b69c2b068fc378daa952ba7f163c4a11628f55a4df523b3ef83604051610c0b9190610de8565b60405180910390a3505050565b600081519050919050565b600082825260208201905092915050565b60005b83811015610c52578082015181840152602081019050610c37565b60008484015250505050565b6000601f19601f8301169050919050565b6000610c7a82610c18565b610c848185610c23565b9350610c94818560208601610c34565b610c9d81610c5e565b840191505092915050565b60006020820190508181036000830152610cc28184610c6f565b905092915050565b600080fd5b600073ffffffffffffffffffffffffffffffffffffffff82169050919050565b6000610cfa82610ccf565b9050919050565b610d0a81610cef565b8114610d1557600080fd5b50565b600081359050610d2781610d01565b92915050565b6000819050919050565b610d4081610d2d565b8114610d4b57600080fd5b50565b600081359050610d5d81610d37565b92915050565b60008060408385031215610d7a57610d79610cca565b5b6000610d8885828601610d18565b9250506020610d9985828601610d4e565b9150509250929050565b60008115159050919050565b610db881610da3565b82525050565b6000602082019050610dd36000830184610daf565b92915050565b610de281610d2d565b82525050565b6000602082019050610dfd6000830184610dd9565b92915050565b60008060408385031215610e1a57610e19610cca565b5b6000610e2885828601610d4e565b9250506020610e3985828601610d18565b9150509250929050565b600080600060608486031215610e5c57610e5b610cca565b5b6000610e6a86828701610d18565b9350506020610e7b86828701610d18565b9250506040610e8c86828701610d4e565b9150509250925092565b600060ff82169050919050565b610eac81610e96565b82525050565b6000602082019050610ec76000830184610ea3565b92915050565b600060208284031215610ee357610ee2610cca565b5b6000610ef184828501610d18565b91505092915050565b60008060408385031215610f1157610f10610cca565b5b6000610f1f85828601610d18565b9250506020610f3085828601610d18565b9150509250929050565b6000819050919050565b6000610f5f610f5a610f5584610ccf565b610f3a565b610ccf565b9050919050565b6000610f7182610f44565b9050919050565b6000610f8382610f66565b9050919050565b610f9381610f78565b82525050565b6000602082019050610fae6000830184610f8a565b92915050565b7f4e487b7100000000000000000000000000000000000000000000000000000000600052602260045260246000fd5b60006002820490506001821680610ffb57607f821691505b60208210810361100e5761100d610fb4565b5b50919050565b7f546f6b656e20616d6f756e74206d75737420626520677265617465722074686160008201527f6e20300000000000000000000000000000000000000000000000000000000000602082015250565b6000611070602383610c23565b915061107b82611014565b604082019050919050565b6000602082019050818103600083015261109f81611063565b9050919050565b6110af81610cef565b82525050565b60006060820190506110ca60008301866110a6565b6110d760208301856110a6565b6110e46040830184610dd9565b949350505050565b6110f581610da3565b811461110057600080fd5b50565b600081519050611112816110ec565b92915050565b60006020828403121561112e5761112d610cca565b5b600061113c84828501611103565b91505092915050565b7f4e487b7100000000000000000000000000000000000000000000000000000000600052601160045260246000fd5b600061117f82610d2d565b915061118a83610d2d565b925082820261119881610d2d565b915082820484148315176111af576111ae611145565b5b5092915050565b60006020820190506111cb60008301846110a6565b92915050565b60006060820190506111e660008301866110a6565b6111f36020830185610dd9565b6112006040830184610dd9565b949350505050565b600061121382610d2d565b915061121e83610d2d565b925082820190508082111561123657611235611145565b5b9291505056fea2646970667358221220e68303409c32be52b1e7cdd8f4afeaf9dccbd2527d25a1ac08ac220fbe90507664736f6c63430008140033a264697066735822122092e7ec7659bbdfa33ad8d44a3acef3c04885abb262852d67e83405dc88da5c4964736f6c63430008140033",
    "linkReferences": {},
    "deployedLinkReferences": {}
}