{
    "_format": "hh-sol-artifact-1",
    "contractName": "Communities",
    "sourceName": "contracts/Communities.sol",
    "abi": [
        {
            "inputs": [],
            "stateMutability": "nonpayable",
            "type": "constructor"
        },
        {
            "inputs": [
                {
                    "internalType": "string",
                    "name": "name1",
                    "type": "string"
                },
                {
                    "internalType": "address",
                    "name": "communityAddress",
                    "type": "address"
                },
                {
                    "internalType": "address",
                    "name": "tokenAddress1",
                    "type": "address"
                }
            ],
            "name": "addToList",
            "outputs": [],
            "stateMutability": "nonpayable",
            "type": "function"
        },
        {
            "inputs": [
                {
                    "internalType": "string",
                    "name": "title1",
                    "type": "string"
                },
                {
                    "internalType": "string",
                    "name": "description1",
                    "type": "string"
                },
                {
                    "internalType": "uint256",
                    "name": "initialTokens",
                    "type": "uint256"
                }
            ],
            "name": "createCommunity",
            "outputs": [],
            "stateMutability": "payable",
            "type": "function"
        },
        {
            "inputs": [
                {
                    "internalType": "uint256",
                    "name": "initialTokens",
                    "type": "uint256"
                },
                {
                    "internalType": "uint256",
                    "name": "conversionRate",
                    "type": "uint256"
                },
                {
                    "internalType": "string",
                    "name": "name",
                    "type": "string"
                },
                {
                    "internalType": "string",
                    "name": "symbol",
                    "type": "string"
                }
            ],
            "name": "createCommunityToken",
            "outputs": [],
            "stateMutability": "payable",
            "type": "function"
        }
    ],
    "bytecode": "0x608060405234801561001057600080fd5b50613518806100206000396000f3fe608060405260043610620000385760003560e01c8063912fce8a146200003d578063b5c72f43146200006b578063bbee592e146200008b575b600080fd5b3480156200004a57600080fd5b50620000696004803603810190620000639190620004f2565b620000ab565b005b620000896004803603810190620000839190620005a8565b620001d0565b005b620000a96004803603810190620000a3919062000642565b62000266565b005b600060405180606001604052808473ffffffffffffffffffffffffffffffffffffffff1681526020018581526020018373ffffffffffffffffffffffffffffffffffffffff168152509050600181908060018154018082558091505060019003906000526020600020906003020160009091909190915060008201518160000160006101000a81548173ffffffffffffffffffffffffffffffffffffffff021916908373ffffffffffffffffffffffffffffffffffffffff160217905550602082015181600101908162000180919062000933565b5060408201518160020160006101000a81548173ffffffffffffffffffffffffffffffffffffffff021916908373ffffffffffffffffffffffffffffffffffffffff160217905550505050505050565b6000838360008054906101000a900473ffffffffffffffffffffffffffffffffffffffff16846040516200020490620002fb565b62000213949392919062000aba565b604051809103906000f08015801562000230573d6000803e3d6000fd5b50905062000260848260008054906101000a900473ffffffffffffffffffffffffffffffffffffffff16620000ab565b50505050565b60008282858762000278919062000b44565b604051620002869062000309565b620002949392919062000b8f565b604051809103906000f080158015620002b1573d6000803e3d6000fd5b509050806000806101000a81548173ffffffffffffffffffffffffffffffffffffffff021916908373ffffffffffffffffffffffffffffffffffffffff1602179055505050505050565b610bc88062000bdb83390190565b611d4080620017a383390190565b6000604051905090565b600080fd5b600080fd5b600080fd5b600080fd5b6000601f19601f8301169050919050565b7f4e487b7100000000000000000000000000000000000000000000000000000000600052604160045260246000fd5b620003808262000335565b810181811067ffffffffffffffff82111715620003a257620003a162000346565b5b80604052505050565b6000620003b762000317565b9050620003c5828262000375565b919050565b600067ffffffffffffffff821115620003e857620003e762000346565b5b620003f38262000335565b9050602081019050919050565b82818337600083830152505050565b6000620004266200042084620003ca565b620003ab565b90508281526020810184848401111562000445576200044462000330565b5b6200045284828562000400565b509392505050565b600082601f8301126200047257620004716200032b565b5b8135620004848482602086016200040f565b91505092915050565b600073ffffffffffffffffffffffffffffffffffffffff82169050919050565b6000620004ba826200048d565b9050919050565b620004cc81620004ad565b8114620004d857600080fd5b50565b600081359050620004ec81620004c1565b92915050565b6000806000606084860312156200050e576200050d62000321565b5b600084013567ffffffffffffffff8111156200052f576200052e62000326565b5b6200053d868287016200045a565b93505060206200055086828701620004db565b92505060406200056386828701620004db565b9150509250925092565b6000819050919050565b62000582816200056d565b81146200058e57600080fd5b50565b600081359050620005a28162000577565b92915050565b600080600060608486031215620005c457620005c362000321565b5b600084013567ffffffffffffffff811115620005e557620005e462000326565b5b620005f3868287016200045a565b935050602084013567ffffffffffffffff81111562000617576200061662000326565b5b62000625868287016200045a565b9250506040620006388682870162000591565b9150509250925092565b600080600080608085870312156200065f576200065e62000321565b5b60006200066f8782880162000591565b9450506020620006828782880162000591565b935050604085013567ffffffffffffffff811115620006a657620006a562000326565b5b620006b4878288016200045a565b925050606085013567ffffffffffffffff811115620006d857620006d762000326565b5b620006e6878288016200045a565b91505092959194509250565b600081519050919050565b7f4e487b7100000000000000000000000000000000000000000000000000000000600052602260045260246000fd5b600060028204905060018216806200074557607f821691505b6020821081036200075b576200075a620006fd565b5b50919050565b60008190508160005260206000209050919050565b60006020601f8301049050919050565b600082821b905092915050565b600060088302620007c57fffffffffffffffffffffffffffffffffffffffffffffffffffffffffffffffff8262000786565b620007d1868362000786565b95508019841693508086168417925050509392505050565b6000819050919050565b6000620008146200080e62000808846200056d565b620007e9565b6200056d565b9050919050565b6000819050919050565b6200083083620007f3565b620008486200083f826200081b565b84845462000793565b825550505050565b600090565b6200085f62000850565b6200086c81848462000825565b505050565b5b8181101562000894576200088860008262000855565b60018101905062000872565b5050565b601f821115620008e357620008ad8162000761565b620008b88462000776565b81016020851015620008c8578190505b620008e0620008d78562000776565b83018262000871565b50505b505050565b600082821c905092915050565b60006200090860001984600802620008e8565b1980831691505092915050565b6000620009238383620008f5565b9150826002028217905092915050565b6200093e82620006f2565b67ffffffffffffffff8111156200095a576200095962000346565b5b6200096682546200072c565b6200097382828562000898565b600060209050601f831160018114620009ab576000841562000996578287015190505b620009a2858262000915565b86555062000a12565b601f198416620009bb8662000761565b60005b82811015620009e557848901518255600182019150602085019450602081019050620009be565b8683101562000a05578489015162000a01601f891682620008f5565b8355505b6001600288020188555050505b505050505050565b600082825260208201905092915050565b60005b8381101562000a4b57808201518184015260208101905062000a2e565b60008484015250505050565b600062000a6482620006f2565b62000a70818562000a1a565b935062000a8281856020860162000a2b565b62000a8d8162000335565b840191505092915050565b62000aa381620004ad565b82525050565b62000ab4816200056d565b82525050565b6000608082019050818103600083015262000ad6818762000a57565b9050818103602083015262000aec818662000a57565b905062000afd604083018562000a98565b62000b0c606083018462000aa9565b95945050505050565b7f4e487b7100000000000000000000000000000000000000000000000000000000600052601160045260246000fd5b600062000b51826200056d565b915062000b5e836200056d565b925082820262000b6e816200056d565b9150828204841483151762000b885762000b8762000b15565b5b5092915050565b6000606082019050818103600083015262000bab818662000a57565b9050818103602083015262000bc1818562000a57565b905062000bd2604083018462000aa9565b94935050505056fe60806040523480156200001157600080fd5b5060405162000bc838038062000bc883398181016040528101906200003791906200041c565b83600290816200004891906200070d565b5082600390816200005a91906200070d565b50336000806101000a81548173ffffffffffffffffffffffffffffffffffffffff021916908373ffffffffffffffffffffffffffffffffffffffff16021790555060007338b23c06be9c1bee388305153737f3de98a763e5905080600160006101000a81548173ffffffffffffffffffffffffffffffffffffffff021916908373ffffffffffffffffffffffffffffffffffffffff160217905550600160009054906101000a900473ffffffffffffffffffffffffffffffffffffffff1673ffffffffffffffffffffffffffffffffffffffff166323b872dd3330856040518463ffffffff1660e01b8152600401620001569392919062000816565b6020604051808303816000875af115801562000176573d6000803e3d6000fd5b505050506040513d601f19601f820116820180604052508101906200019c919062000890565b5082600560006101000a81548173ffffffffffffffffffffffffffffffffffffffff021916908373ffffffffffffffffffffffffffffffffffffffff1602179055505050505050620008c2565b6000604051905090565b600080fd5b600080fd5b600080fd5b600080fd5b6000601f19601f8301169050919050565b7f4e487b7100000000000000000000000000000000000000000000000000000000600052604160045260246000fd5b620002528262000207565b810181811067ffffffffffffffff8211171562000274576200027362000218565b5b80604052505050565b600062000289620001e9565b905062000297828262000247565b919050565b600067ffffffffffffffff821115620002ba57620002b962000218565b5b620002c58262000207565b9050602081019050919050565b60005b83811015620002f2578082015181840152602081019050620002d5565b60008484015250505050565b6000620003156200030f846200029c565b6200027d565b90508281526020810184848401111562000334576200033362000202565b5b62000341848285620002d2565b509392505050565b600082601f830112620003615762000360620001fd565b5b815162000373848260208601620002fe565b91505092915050565b600073ffffffffffffffffffffffffffffffffffffffff82169050919050565b6000620003a9826200037c565b9050919050565b620003bb816200039c565b8114620003c757600080fd5b50565b600081519050620003db81620003b0565b92915050565b6000819050919050565b620003f681620003e1565b81146200040257600080fd5b50565b6000815190506200041681620003eb565b92915050565b60008060008060808587031215620004395762000438620001f3565b5b600085015167ffffffffffffffff8111156200045a5762000459620001f8565b5b620004688782880162000349565b945050602085015167ffffffffffffffff8111156200048c576200048b620001f8565b5b6200049a8782880162000349565b9350506040620004ad87828801620003ca565b9250506060620004c08782880162000405565b91505092959194509250565b600081519050919050565b7f4e487b7100000000000000000000000000000000000000000000000000000000600052602260045260246000fd5b600060028204905060018216806200051f57607f821691505b602082108103620005355762000534620004d7565b5b50919050565b60008190508160005260206000209050919050565b60006020601f8301049050919050565b600082821b905092915050565b6000600883026200059f7fffffffffffffffffffffffffffffffffffffffffffffffffffffffffffffffff8262000560565b620005ab868362000560565b95508019841693508086168417925050509392505050565b6000819050919050565b6000620005ee620005e8620005e284620003e1565b620005c3565b620003e1565b9050919050565b6000819050919050565b6200060a83620005cd565b620006226200061982620005f5565b8484546200056d565b825550505050565b600090565b620006396200062a565b62000646818484620005ff565b505050565b5b818110156200066e57620006626000826200062f565b6001810190506200064c565b5050565b601f821115620006bd5762000687816200053b565b620006928462000550565b81016020851015620006a2578190505b620006ba620006b18562000550565b8301826200064b565b50505b505050565b600082821c905092915050565b6000620006e260001984600802620006c2565b1980831691505092915050565b6000620006fd8383620006cf565b9150826002028217905092915050565b6200071882620004cc565b67ffffffffffffffff81111562000734576200073362000218565b5b62000740825462000506565b6200074d82828562000672565b600060209050601f83116001811462000785576000841562000770578287015190505b6200077c8582620006ef565b865550620007ec565b601f19841662000795866200053b565b60005b82811015620007bf5784890151825560018201915060208501945060208101905062000798565b86831015620007df5784890151620007db601f891682620006cf565b8355505b6001600288020188555050505b505050505050565b620007ff816200039c565b82525050565b6200081081620003e1565b82525050565b60006060820190506200082d6000830186620007f4565b6200083c6020830185620007f4565b6200084b604083018462000805565b949350505050565b60008115159050919050565b6200086a8162000853565b81146200087657600080fd5b50565b6000815190506200088a816200085f565b92915050565b600060208284031215620008a957620008a8620001f3565b5b6000620008b98482850162000879565b91505092915050565b6102f680620008d26000396000f3fe608060405234801561001057600080fd5b50600436106100575760003560e01c806326b85ee11461005c578063295854301461007a5780634d0047ee146100985780638da5cb5b146100b6578063f7e7943c146100d4575b600080fd5b6100646100f2565b60405161007191906101ef565b60405180910390f35b610082610118565b60405161008f9190610269565b60405180910390f35b6100a061013e565b6040516100ad91906101ef565b60405180910390f35b6100be610164565b6040516100cb91906101ef565b60405180910390f35b6100dc610188565b6040516100e991906102a5565b60405180910390f35b600460009054906101000a900473ffffffffffffffffffffffffffffffffffffffff1681565b600560009054906101000a900473ffffffffffffffffffffffffffffffffffffffff1681565b600660009054906101000a900473ffffffffffffffffffffffffffffffffffffffff1681565b60008054906101000a900473ffffffffffffffffffffffffffffffffffffffff1681565b600160009054906101000a900473ffffffffffffffffffffffffffffffffffffffff1681565b600073ffffffffffffffffffffffffffffffffffffffff82169050919050565b60006101d9826101ae565b9050919050565b6101e9816101ce565b82525050565b600060208201905061020460008301846101e0565b92915050565b6000819050919050565b600061022f61022a610225846101ae565b61020a565b6101ae565b9050919050565b600061024182610214565b9050919050565b600061025382610236565b9050919050565b61026381610248565b82525050565b600060208201905061027e600083018461025a565b92915050565b600061028f82610236565b9050919050565b61029f81610284565b82525050565b60006020820190506102ba6000830184610296565b9291505056fea26469706673582212205df6722bcbed578fbbcf3f88e67a19b86286dfec6de19e6a7c73f040ebb4801264736f6c63430008140033608060405260646006553480156200001657600080fd5b5060405162001d4038038062001d4083398181016040528101906200003c91906200057a565b828281600390816200004f919062000855565b50806004908162000061919062000855565b50505060007338b23c06be9c1bee388305153737f3de98a763e5905080600560006101000a81548173ffffffffffffffffffffffffffffffffffffffff021916908373ffffffffffffffffffffffffffffffffffffffff160217905550620000e533670de0b6b3a764000084620000d991906200096b565b620000ef60201b60201c565b5050505062000abe565b600073ffffffffffffffffffffffffffffffffffffffff168273ffffffffffffffffffffffffffffffffffffffff1603620001645760006040517fec442f050000000000000000000000000000000000000000000000000000000081526004016200015b9190620009fb565b60405180910390fd5b62000178600083836200017c60201b60201c565b5050565b600073ffffffffffffffffffffffffffffffffffffffff168373ffffffffffffffffffffffffffffffffffffffff1603620001d2578060026000828254620001c5919062000a18565b92505081905550620002a8565b60008060008573ffffffffffffffffffffffffffffffffffffffff1673ffffffffffffffffffffffffffffffffffffffff1681526020019081526020016000205490508181101562000261578381836040517fe450d38c000000000000000000000000000000000000000000000000000000008152600401620002589392919062000a64565b60405180910390fd5b8181036000808673ffffffffffffffffffffffffffffffffffffffff1673ffffffffffffffffffffffffffffffffffffffff16815260200190815260200160002081905550505b600073ffffffffffffffffffffffffffffffffffffffff168273ffffffffffffffffffffffffffffffffffffffff1603620002f3578060026000828254039250508190555062000340565b806000808473ffffffffffffffffffffffffffffffffffffffff1673ffffffffffffffffffffffffffffffffffffffff168152602001908152602001600020600082825401925050819055505b8173ffffffffffffffffffffffffffffffffffffffff168373ffffffffffffffffffffffffffffffffffffffff167fddf252ad1be2c89b69c2b068fc378daa952ba7f163c4a11628f55a4df523b3ef836040516200039f919062000aa1565b60405180910390a3505050565b6000604051905090565b600080fd5b600080fd5b600080fd5b600080fd5b6000601f19601f8301169050919050565b7f4e487b7100000000000000000000000000000000000000000000000000000000600052604160045260246000fd5b6200041582620003ca565b810181811067ffffffffffffffff82111715620004375762000436620003db565b5b80604052505050565b60006200044c620003ac565b90506200045a82826200040a565b919050565b600067ffffffffffffffff8211156200047d576200047c620003db565b5b6200048882620003ca565b9050602081019050919050565b60005b83811015620004b557808201518184015260208101905062000498565b60008484015250505050565b6000620004d8620004d2846200045f565b62000440565b905082815260208101848484011115620004f757620004f6620003c5565b5b6200050484828562000495565b509392505050565b600082601f830112620005245762000523620003c0565b5b815162000536848260208601620004c1565b91505092915050565b6000819050919050565b62000554816200053f565b81146200056057600080fd5b50565b600081519050620005748162000549565b92915050565b600080600060608486031215620005965762000595620003b6565b5b600084015167ffffffffffffffff811115620005b757620005b6620003bb565b5b620005c5868287016200050c565b935050602084015167ffffffffffffffff811115620005e957620005e8620003bb565b5b620005f7868287016200050c565b92505060406200060a8682870162000563565b9150509250925092565b600081519050919050565b7f4e487b7100000000000000000000000000000000000000000000000000000000600052602260045260246000fd5b600060028204905060018216806200066757607f821691505b6020821081036200067d576200067c6200061f565b5b50919050565b60008190508160005260206000209050919050565b60006020601f8301049050919050565b600082821b905092915050565b600060088302620006e77fffffffffffffffffffffffffffffffffffffffffffffffffffffffffffffffff82620006a8565b620006f38683620006a8565b95508019841693508086168417925050509392505050565b6000819050919050565b600062000736620007306200072a846200053f565b6200070b565b6200053f565b9050919050565b6000819050919050565b620007528362000715565b6200076a62000761826200073d565b848454620006b5565b825550505050565b600090565b6200078162000772565b6200078e81848462000747565b505050565b5b81811015620007b657620007aa60008262000777565b60018101905062000794565b5050565b601f8211156200080557620007cf8162000683565b620007da8462000698565b81016020851015620007ea578190505b62000802620007f98562000698565b83018262000793565b50505b505050565b600082821c905092915050565b60006200082a600019846008026200080a565b1980831691505092915050565b600062000845838362000817565b9150826002028217905092915050565b620008608262000614565b67ffffffffffffffff8111156200087c576200087b620003db565b5b6200088882546200064e565b62000895828285620007ba565b600060209050601f831160018114620008cd5760008415620008b8578287015190505b620008c4858262000837565b86555062000934565b601f198416620008dd8662000683565b60005b828110156200090757848901518255600182019150602085019450602081019050620008e0565b8683101562000927578489015162000923601f89168262000817565b8355505b6001600288020188555050505b505050505050565b7f4e487b7100000000000000000000000000000000000000000000000000000000600052601160045260246000fd5b600062000978826200053f565b915062000985836200053f565b925082820262000995816200053f565b91508282048414831517620009af57620009ae6200093c565b5b5092915050565b600073ffffffffffffffffffffffffffffffffffffffff82169050919050565b6000620009e382620009b6565b9050919050565b620009f581620009d6565b82525050565b600060208201905062000a126000830184620009ea565b92915050565b600062000a25826200053f565b915062000a32836200053f565b925082820190508082111562000a4d5762000a4c6200093c565b5b92915050565b62000a5e816200053f565b82525050565b600060608201905062000a7b6000830186620009ea565b62000a8a602083018562000a53565b62000a99604083018462000a53565b949350505050565b600060208201905062000ab8600083018462000a53565b92915050565b6112728062000ace6000396000f3fe608060405234801561001057600080fd5b50600436106100a95760003560e01c8063313ce56711610071578063313ce5671461016657806370a082311461018457806395d89b41146101b4578063a9059cbb146101d2578063dd62ed3e14610202578063f7e7943c14610232576100a9565b806306fdde03146100ae578063095ea7b3146100cc57806318160ddd146100fc5780632130af9e1461011a57806323b872dd14610136575b600080fd5b6100b6610250565b6040516100c39190610ca8565b60405180910390f35b6100e660048036038101906100e19190610d63565b6102e2565b6040516100f39190610dbe565b60405180910390f35b610104610305565b6040516101119190610de8565b60405180910390f35b610134600480360381019061012f9190610e03565b61030f565b005b610150600480360381019061014b9190610e43565b610416565b60405161015d9190610dbe565b60405180910390f35b61016e610445565b60405161017b9190610eb2565b60405180910390f35b61019e60048036038101906101999190610ecd565b61044e565b6040516101ab9190610de8565b60405180910390f35b6101bc610496565b6040516101c99190610ca8565b60405180910390f35b6101ec60048036038101906101e79190610d63565b610528565b6040516101f99190610dbe565b60405180910390f35b61021c60048036038101906102179190610efa565b61054b565b6040516102299190610de8565b60405180910390f35b61023a6105d2565b6040516102479190610f99565b60405180910390f35b60606003805461025f90610fe3565b80601f016020809104026020016040519081016040528092919081815260200182805461028b90610fe3565b80156102d85780601f106102ad576101008083540402835291602001916102d8565b820191906000526020600020905b8154815290600101906020018083116102bb57829003601f168201915b5050505050905090565b6000806102ed6105f8565b90506102fa818585610600565b600191505092915050565b6000600254905090565b60008211610352576040517f08c379a000000000000000000000000000000000000000000000000000000000815260040161034990611086565b60405180910390fd5b600560009054906101000a900473ffffffffffffffffffffffffffffffffffffffff1673ffffffffffffffffffffffffffffffffffffffff166323b872dd3383856040518463ffffffff1660e01b81526004016103b1939291906110b5565b6020604051808303816000875af11580156103d0573d6000803e3d6000fd5b505050506040513d601f19601f820116820180604052508101906103f49190611118565b506000600654836104059190611174565b90506104113382610612565b505050565b6000806104216105f8565b905061042e858285610694565b610439858585610728565b60019150509392505050565b60006012905090565b60008060008373ffffffffffffffffffffffffffffffffffffffff1673ffffffffffffffffffffffffffffffffffffffff168152602001908152602001600020549050919050565b6060600480546104a590610fe3565b80601f01602080910402602001604051908101604052809291908181526020018280546104d190610fe3565b801561051e5780601f106104f35761010080835404028352916020019161051e565b820191906000526020600020905b81548152906001019060200180831161050157829003601f168201915b5050505050905090565b6000806105336105f8565b9050610540818585610728565b600191505092915050565b6000600160008473ffffffffffffffffffffffffffffffffffffffff1673ffffffffffffffffffffffffffffffffffffffff16815260200190815260200160002060008373ffffffffffffffffffffffffffffffffffffffff1673ffffffffffffffffffffffffffffffffffffffff16815260200190815260200160002054905092915050565b600560009054906101000a900473ffffffffffffffffffffffffffffffffffffffff1681565b600033905090565b61060d838383600161081c565b505050565b600073ffffffffffffffffffffffffffffffffffffffff168273ffffffffffffffffffffffffffffffffffffffff16036106845760006040517fec442f0500000000000000000000000000000000000000000000000000000000815260040161067b91906111b6565b60405180910390fd5b610690600083836109f3565b5050565b60006106a0848461054b565b90507fffffffffffffffffffffffffffffffffffffffffffffffffffffffffffffffff81146107225781811015610712578281836040517ffb8f41b2000000000000000000000000000000000000000000000000000000008152600401610709939291906111d1565b60405180910390fd5b6107218484848403600061081c565b5b50505050565b600073ffffffffffffffffffffffffffffffffffffffff168373ffffffffffffffffffffffffffffffffffffffff160361079a5760006040517f96c6fd1e00000000000000000000000000000000000000000000000000000000815260040161079191906111b6565b60405180910390fd5b600073ffffffffffffffffffffffffffffffffffffffff168273ffffffffffffffffffffffffffffffffffffffff160361080c5760006040517fec442f0500000000000000000000000000000000000000000000000000000000815260040161080391906111b6565b60405180910390fd5b6108178383836109f3565b505050565b600073ffffffffffffffffffffffffffffffffffffffff168473ffffffffffffffffffffffffffffffffffffffff160361088e5760006040517fe602df0500000000000000000000000000000000000000000000000000000000815260040161088591906111b6565b60405180910390fd5b600073ffffffffffffffffffffffffffffffffffffffff168373ffffffffffffffffffffffffffffffffffffffff16036109005760006040517f94280d620000000000000000000000000000000000000000000000000000000081526004016108f791906111b6565b60405180910390fd5b81600160008673ffffffffffffffffffffffffffffffffffffffff1673ffffffffffffffffffffffffffffffffffffffff16815260200190815260200160002060008573ffffffffffffffffffffffffffffffffffffffff1673ffffffffffffffffffffffffffffffffffffffff1681526020019081526020016000208190555080156109ed578273ffffffffffffffffffffffffffffffffffffffff168473ffffffffffffffffffffffffffffffffffffffff167f8c5be1e5ebec7d5bd14f71427d1e84f3dd0314c0f7b2291e5b200ac8c7c3b925846040516109e49190610de8565b60405180910390a35b50505050565b600073ffffffffffffffffffffffffffffffffffffffff168373ffffffffffffffffffffffffffffffffffffffff1603610a45578060026000828254610a399190611208565b92505081905550610b18565b60008060008573ffffffffffffffffffffffffffffffffffffffff1673ffffffffffffffffffffffffffffffffffffffff16815260200190815260200160002054905081811015610ad1578381836040517fe450d38c000000000000000000000000000000000000000000000000000000008152600401610ac8939291906111d1565b60405180910390fd5b8181036000808673ffffffffffffffffffffffffffffffffffffffff1673ffffffffffffffffffffffffffffffffffffffff16815260200190815260200160002081905550505b600073ffffffffffffffffffffffffffffffffffffffff168273ffffffffffffffffffffffffffffffffffffffff1603610b615780600260008282540392505081905550610bae565b806000808473ffffffffffffffffffffffffffffffffffffffff1673ffffffffffffffffffffffffffffffffffffffff168152602001908152602001600020600082825401925050819055505b8173ffffffffffffffffffffffffffffffffffffffff168373ffffffffffffffffffffffffffffffffffffffff167fddf252ad1be2c89b69c2b068fc378daa952ba7f163c4a11628f55a4df523b3ef83604051610c0b9190610de8565b60405180910390a3505050565b600081519050919050565b600082825260208201905092915050565b60005b83811015610c52578082015181840152602081019050610c37565b60008484015250505050565b6000601f19601f8301169050919050565b6000610c7a82610c18565b610c848185610c23565b9350610c94818560208601610c34565b610c9d81610c5e565b840191505092915050565b60006020820190508181036000830152610cc28184610c6f565b905092915050565b600080fd5b600073ffffffffffffffffffffffffffffffffffffffff82169050919050565b6000610cfa82610ccf565b9050919050565b610d0a81610cef565b8114610d1557600080fd5b50565b600081359050610d2781610d01565b92915050565b6000819050919050565b610d4081610d2d565b8114610d4b57600080fd5b50565b600081359050610d5d81610d37565b92915050565b60008060408385031215610d7a57610d79610cca565b5b6000610d8885828601610d18565b9250506020610d9985828601610d4e565b9150509250929050565b60008115159050919050565b610db881610da3565b82525050565b6000602082019050610dd36000830184610daf565b92915050565b610de281610d2d565b82525050565b6000602082019050610dfd6000830184610dd9565b92915050565b60008060408385031215610e1a57610e19610cca565b5b6000610e2885828601610d4e565b9250506020610e3985828601610d18565b9150509250929050565b600080600060608486031215610e5c57610e5b610cca565b5b6000610e6a86828701610d18565b9350506020610e7b86828701610d18565b9250506040610e8c86828701610d4e565b9150509250925092565b600060ff82169050919050565b610eac81610e96565b82525050565b6000602082019050610ec76000830184610ea3565b92915050565b600060208284031215610ee357610ee2610cca565b5b6000610ef184828501610d18565b91505092915050565b60008060408385031215610f1157610f10610cca565b5b6000610f1f85828601610d18565b9250506020610f3085828601610d18565b9150509250929050565b6000819050919050565b6000610f5f610f5a610f5584610ccf565b610f3a565b610ccf565b9050919050565b6000610f7182610f44565b9050919050565b6000610f8382610f66565b9050919050565b610f9381610f78565b82525050565b6000602082019050610fae6000830184610f8a565b92915050565b7f4e487b7100000000000000000000000000000000000000000000000000000000600052602260045260246000fd5b60006002820490506001821680610ffb57607f821691505b60208210810361100e5761100d610fb4565b5b50919050565b7f546f6b656e20616d6f756e74206d75737420626520677265617465722074686160008201527f6e20300000000000000000000000000000000000000000000000000000000000602082015250565b6000611070602383610c23565b915061107b82611014565b604082019050919050565b6000602082019050818103600083015261109f81611063565b9050919050565b6110af81610cef565b82525050565b60006060820190506110ca60008301866110a6565b6110d760208301856110a6565b6110e46040830184610dd9565b949350505050565b6110f581610da3565b811461110057600080fd5b50565b600081519050611112816110ec565b92915050565b60006020828403121561112e5761112d610cca565b5b600061113c84828501611103565b91505092915050565b7f4e487b7100000000000000000000000000000000000000000000000000000000600052601160045260246000fd5b600061117f82610d2d565b915061118a83610d2d565b925082820261119881610d2d565b915082820484148315176111af576111ae611145565b5b5092915050565b60006020820190506111cb60008301846110a6565b92915050565b60006060820190506111e660008301866110a6565b6111f36020830185610dd9565b6112006040830184610dd9565b949350505050565b600061121382610d2d565b915061121e83610d2d565b925082820190508082111561123657611235611145565b5b9291505056fea2646970667358221220baf6e996b6e0071f13d5c431b3ac0df39d775f74e2ea6890942d74d3b5a023b164736f6c63430008140033a26469706673582212203a6b5c80aded891fe922e2f383c1f7141f5bcae021ff1ca1098de8d24474e25e64736f6c63430008140033",
    "linkReferences": {},
    "deployedLinkReferences": {}
}